:100000000110040000000000801C0000FF00000040
:10001000020CAA43D48043F48022FF0215E47E033D
:100020009000BFE06F6007EFF0E49000C2F0900036
:10003000BFE07001FE9000C2E004F0C39E50037F59
:1000400000229000C27403F07F01220217BAE4FB81
:10005000EB25E025E02490F8120232EB25E025E0C4
:1000600024A0F812024B0BBB04E622020FEEBB01E8
:100070000689828A83E0225002E722BBFE02E32245
:1000800089828A83E49322EF8DF0A4A8F0CF8CF0CC
:10009000A428CE8DF0A42EFE22BC000BBE0029EFBA
:1000A0008DF084FFADF022E4CCF875F008EF2FFF5F
:1000B000EE33FEEC33FCEE9DEC984005FCEE9DFE2D
:1000C0000FD5F0E9E4CEFD22EDF8F5F0EE8420D274
:1000D0001CFEADF075F008EF2FFFED33FD400798E3
:1000E0005006D5F0F222C398FD0FD5F0EA22E88F32
:1000F000F0A4CC8BF0A42CFCE98EF0A42CFC8AF0AC
:10010000EDA42CFCEA8EF0A4CDA8F08BF0A42DCCAD
:100110003825F0FDE98FF0A42CCD35F0FCEB8EF006
:10012000A4FEA9F0EB8FF0A4CFC5F02ECD39FEE4EC
:100130003CFCEAA42DCE35F0FDE43CFC2275F00831
:10014000758200EF2FFFEE33FECD33CDCC33CCC51F
:100150008233C5829BED9AEC99E58298400CF5823A
:10016000EE9BFEED9AFDEC99FC0FD5F0D6E4CEFBAC
:10017000E4CDFAE4CCF9A88222B800C1B90059BA9A
:10018000002DEC8BF084CFCECDFCE5F0CBF97818C8
:10019000EF2FFFEE33FEED33FDEC33FCEB33FB10C2
:1001A000D703994004EB99FB0FD8E5E4F9FA2278DC
:1001B00018EF2FFFEE33FEED33FDEC33FCC933C9EE
:1001C00010D7059BE99A4007EC9BFCE99AF90FD8F8
:1001D000E0E4C9FAE4CCFB2275F010EF2FFFEE3318
:1001E000FEED33FDCC33CCC833C810D7079BEC9A57
:1001F000E899400AED9BFDEC9AFCE899F80FD5F0E0
:10020000DAE4CDFBE4CCFAE4C8F922EB9FF5F0EA9E
:100210009E42F0E99D42F0E89C45F022E8600FEC38
:10022000C313FCED13FDEE13FEEF13FFD8F122E82C
:10023000600FEFC333FFEE33FEED33FDEC33FCD83C
:10024000F122E6FC08E6FD08E6FE08E6FF22E6FBF2
:1002500008E6F908E6FA08E6CBF822ECF608EDF62F
:1002600008EEF608EFF622ECF208EDF208EEF208DE
:10027000EFF222D083D082E493F608740193F6085B
:10028000740293F608740393F6740473D083D082D7
:10029000E493F208740193F208740293F208740371
:1002A00093F2740473D083D082F8E49370127401D3
:1002B00093700DA3A393F8740193F5828883E4737C
:1002C0007402936860EFA3A3A380DF8A838982E42A
:1002D000738E338F34E4F536F537F5389000D2E07D
:1002E000F537A3E0F538E4F5359000C0E0701390E1
:1002F00000C2E0B4030CD37896E2940018E29400B4
:10030000401EE53525E02485F8E4F208F2E53525C0
:10031000E025E0246DF812027C000000000203D703
:10032000E53525E02486F9E3700219E3701AE53516
:1003300025E02400F8E2FE08E2FFE53525E0247D13
:10034000F8EEF208EFF28057E53525E0247DF8E27B
:10035000FE08E2FFE53525E02400F8E2FC08E2FDB6
:10036000121B37D3EF9538EE95374033E53525E04E
:100370002400F8E2FE08E2FFE53525E0247DF8EEF2
:10038000F208EFF2E53525E02485F8E4F208F2E51D
:100390003525E025E0246DF812027C00000000E520
:1003A0003525E02400F8E2FE08E2FFE53525E025EA
:1003B000E0246DF8C000E2FB08E2F908E2FA08E286
:1003C000CBF8E4FCFDEB2FFFEA3EFEED39FDEC3807
:1003D000FCD000120257E53525E02485F808E22418
:1003E00001F218E23400F20535E535C394045003F8
:1003F0000202D9E4F535E53525E02486F9C3E39515
:100400003419E39533400205360535E535B404E685
:10041000E536640460030204D174FF9000D4F0A3B5
:10042000F0E4A3F0A3F0F535E53525E02485F8E206
:10043000FE08E2FF4E70030204B4E4FCFDC004A910
:1004400005AA06AB07E53525E025E0246DF8E2FCBA
:1004500008E2FD08E2FE08E2FFD0001201698E39D1
:100460008F3AD39000D5E0953A9000D4E09539408A
:1004700007E539F0A3E53AF0C39000D7E0953A904C
:1004800000D6E095395007E539F0A3E53AF0E535B7
:1004900025E02408F8E539F208E53AF2E53525E0EB
:1004A0002485F8E4F208F2E53525E025E0246DF82E
:1004B00012027C00000000C2080535E535640460C6
:1004C000030204189000D4E0FEA3E0FFA3E0FCA325
:1004D000E0FD121B37D3EF9464EE94004003121733
:1004E0006322E4F531E53125E025E024A0F8C000E1
:1004F000120232C00774562531F8E6FFFBE4FAF920
:10050000F8D0071200DED00012024BE53125E025BD
:10051000E024A0F8C000120232780712020CD000CA
:1005200012024BE53125E025E024A0F8120232EC5E
:100530004D4E4F6076E53125E025E02480F812022B
:1005400032E53125E025E024A0F812023EC3120175
:10055000FB50037F0322E53125E025E02480F812DB
:10056000023EC000E53125E025E024A0F812023269
:10057000D000C3EF9BF535EE9AF534ED99F533ECE9
:1005800098F532E47FFF7EFFFDFCAB35AA34A9333A
:10059000A832C31201FB40037F0322E53125E0248A
:1005A00000F8E534F208E535F28015E531C394042E
:1005B000500BE53125E02410F8E4F208F27F032225
:1005C0000531E531640460030204D5E4F531E53119
:1005D00025E02408F8E2FE08E2FFE53125E02400EA
:1005E000F8E2FC08E2FDD39FEC9E401EE53125E0D9
:1005F0002408F8E2FE08E2FFC3ED9FFFEC9EFEE454
:100600008F398E38F537F5368009E4F539F538F548
:1006100037F536E531C3940440030206D0AF39AE56
:1006200038AD37AC36780712021F8F398E388D37C8
:100630008C369000BFE06040E53125E025E02440A5
:10064000F8E2FC08E2FD08E2FE08E2FFE47B03FAC0
:10065000F9F81200DEEF2539FFEE3538FEED3537BB
:10066000FDEC3536FC780212020CE53125E025E080
:100670002440F81202578043E47F03FEFDFCAB39AF
:10068000AA38A937A8361200DEE53125E025E02496
:1006900040F8E2FB08E2F908E2FA08E2CBF8EB2FB7
:1006A000FFEA3EFEE93DFDE83CFC780212020CE563
:1006B0003125E025E02440F8120257E53125E025F8
:1006C000E02440F8E2FC08E2FD08E2FE08E2FF78E0
:1006D0000712020CE53125E02410F8EEF208EFF2E3
:1006E0000531E531640460030205BE7F072220CA9C
:1006F000030208747845E67003020874E4784FF644
:10070000F53174452531F8E6FF74272531F8A60741
:1007100074452531F8E4F60531E531B40AE4784F43
:10072000E6700320CA12E4F53174272531F8E4F6A7
:100730000531E531B40AF222E527120295074F1080
:10074000075720075F40078450078D6007967007A2
:10075000A29007A9A007AFB007D8C000000823E403
:10076000FF121AE00208237F01121AE00208237820
:10077000607600087632786876000876327870768F
:1007800000087696787876000876967853E654EFE7
:10079000F60208237853E64401F60208237853E66C
:1007A00054FEF6020823E4FF121BAC7855A607029C
:1007B0000823786C7401F2807AE4786CF2807478A3
:1007C00053E6F526786076030876E87868760308BD
:1007D00076E8787076030876E8787876030876E825
:1007E0007853E64420F6804BE52630E424786076A2
:1007F00000087632786876000876327870760008DD
:100800007696787876000876967853E654DFF68008
:10081000227860760008763278687600087632783A
:10082000707600087696787876000876967853E6A3
:1008300054DFF6E52754F064807049E528452960C7
:1008400043E528FE7C00E42529FFEC3EFEC3EF943F
:100850000AEE9400402EE527540FFDBD0F19E4F574
:1008600031E53175F008A42460F8A60608A607054E
:1008700031E531B404EB22ED75F008A42460F8A64C
:100880000608A60722E4F534F533E53325E025E034
:10089000246DF812027C000000000533E533B40437
:1008A000E912193AE4F533E53325E025E0246DF843
:1008B000C000E2FC08E2FD08E2FE08E2FFE53325A5
:1008C000E025E02490F812023EEF2BFFEE3AFEED19
:1008D00039FDEC38FCD0001202570533E533B4047F
:1008E000C60534E534C3940540B7E4F533AF34E4CA
:1008F000FCFDFEC004A905AA06AB07E53325E025EB
:10090000E0246DF8E2FC08E2FD08E2FE08E2FFD018
:10091000001201698F388E378D368C35AB38AA3787
:10092000A936A835C00074562533F8E6FFE4FCFD6F
:10093000FED0001200DE8F388E378D368C3578076A
:1009400012020C8F388E378D368C35E47FE87E03AB
:10095000FDFCAB38AA37A936A835D31201FB4030CD
:10096000E5382418FFE53734FCFEE53634FFFDE5B5
:100970003534FFFCE53325E025E02480F812024BF6
:10098000E53325E02400F87403F20874E8F2801ED1
:10099000E53325E025E02480F81202630000000022
:1009A000E53325E02400F8E537F208E538F2E533D1
:1009B00025E025E0246DF812027C00000000E533FC
:1009C00025E02485F8E4F208F2E533C394045033BB
:1009D000E53325E02400F8E2FE08E2FFE53325E0F8
:1009E0002408F8EEF208EFF2E53325E02410F8E4ED
:1009F000F208F2E53325E025E02440F812027C00FD
:100A00000000000533E533640460030208DD223092
:100A1000050E7534037535E87536037537E8801DA6
:100A200030040E7534007535327536007537968092
:100A30000C753400753532753600753796E4FDED6A
:100A400025E02458F8E2FE08E2FFED25E02419F93C
:100A5000D3E39F19E39E4016ED25E02418F8E2FE4B
:100A600008E2FFED25E02458F8EEF208EFF2EDC3BE
:100A70009402506AE534C313FEE53513FFED25E01B
:100A80002419F9D3E39F19E39E5023ED75F008A4D0
:100A90002460F8A63408A635E53525E0FFE53433B3
:100AA000F8ED25E02458C8F208EFF2020B32ED25EC
:100AB000E02419F9D3E3946419E394005003020B82
:100AC00032ED25E02458F9E3C313FE09E313FFEDEB
:100AD00075F008A42460F8A60608A6078064E53629
:100AE000C313FEE53713FFED25E02419F9D3E39F87
:100AF00019E39E5022ED75F008A42460F8A636088C
:100B0000A637E53725E0FFE53633F8ED25E0245834
:100B1000C8F208EFF2802BED25E02419F9D3E39415
:100B20002C19E39401401BED25E02458F9E3C3138D
:100B3000FE09E313FFED75F008A42460F8A606088B
:100B4000A6070DED64046003020A2FE4FDED75F0C5
:100B500008A42460F8E6FE08E6FFED25E02460F82E
:100B6000EEF208EFF20DBD04E42285BA3953BA0F54
:100B700043BA10E4F533E53325E025E02490F8127C
:100B80000263000000000533E533B404E975330562
:100B900075ABFF121A74E4F534E53425E025E02442
:100BA00090F8C000120232C004C005C006C007742D
:100BB000B02534F8E675F003A4246BF582E4341B09
:100BC000F583E493FB740193FA740293F91202BB68
:100BD000A804A905AA06AB07D007D006D005D00403
:100BE000EF2BFFEE3AFEED39FDEC38FCD00012029F
:100BF0004B0534E534C39404409FE4F5AB121A74FA
:100C0000E4F534E53425E025E02490F8C000120234
:100C100032C004C005C006C00774B02534F8E675BC
:100C2000F003A4246BF582E4341BF583E493FB7496
:100C30000193FA740293F91202BBA804A905AA064B
:100C4000AB07D007D006D005D004C3EF9BFFEE9AC8
:100C5000FEED99FDEC98FCD00012024B0534E53412
:100C6000C39404409E1533E5336003020B80E4F522
:100C700034E4753810753727F536F535AF38AE37AB
:100C8000AD36AC35780712021F8F388E378D368C13
:100C900035E53425E025E02490F812023E12016982
:100CA0008F388E378D368C3574562534F8A6070567
:100CB00034E534B404BB8539BA22439F04E453C6F7
:100CC000DFE5C600B5C6F375830075820775FD0DB7
:100CD000E4E5FEF4FF75830075820675FD0DE4E51D
:100CE000FEB50704F59E8003759E0078100000D8BD
:100CF000FC53C6E043C60843C68075960575970346
:100D000075830075820475FD0D85FE8F75830075F2
:100D1000820375FD0DE4E5FEF4FF75830075820224
:100D200075FD0DE4E5FEB50704F595800375958323
:100D300075BE0E5392FE9001007F007E02E4F0A388
:100D4000DFFCDEFA78007F00E4F208DFFC78FFE4E5
:100D5000F6D8FD7581BB020D87020000020EE4E4A7
:100D600093A3F8E493A34003F68001F208DFF48034
:100D700029E493A3F85407240CC8C333C4540F4484
:100D800020C8834004F456800146F6DFE4800B015E
:100D900002040810204080901708E47E019360BC94
:100DA000A3FF543F30E509541FFEE493A360010EF6
:100DB000CF54C025E060A840B8E493A3FAE493A31D
:100DC000F8E493A3C8C582C8CAC583CAF0A3C8C53E
:100DD00082C8CAC583CADFE9DEE780BE7533077DF6
:100DE0000774017E00A833088005C333CE33CED804
:100DF000F9FFACACECFBE4EF5B7003D533E3ED60E3
:100E00001D74017E00A805088005C333CE33CED8FB
:100E1000F9FFACAEECFBE4EF5B70031D80E0AF3399
:100E20007401A807088002C333D8FCF5AC7401A88C
:100E300005088002C333D8FCFFF5AD8FAE53AACFAF
:100E400085BA3C53BA0F43BA10E4F537F536F53599
:100E5000F534121A74E4F53374B02533F8E675F0FE
:100E600003A4246BF582E4341BF583E493740193AB
:100E7000FA740293F91202BB8F3B8E3A8D398C388B
:100E8000AB37AA36A935A834C31201FB500C853BF9
:100E900037853A368539358538340533E533C3949B
:100EA0000440B5AF37AE36AD35AC34780212020C23
:100EB000E5372FF537E5363EF536E5353DF535E5D1
:100EC000343CF534AF37AE36AD35FC781012020C39
:100ED0008FB3AF37AE36AD35AC34780812020C8F15
:100EE000B28537B143AA30853CBA75AC0375ADC045
:100EF00075AEC022121AFF7D01E4FF1219767F0140
:100F0000121AE07F01121B51121C65120003121C01
:100F100058121A9A1215791219AC121A15D2AF7505
:100F20004201E54224FD601114601924FE6026147C
:100F3000602A1460702407706F1218AB1214F975D0
:100F400042048064D2D8E54370FC12003E121B8339
:100F500075420680531204D28F42804CD39000C851
:100F6000E094009000C7E09400400CA3E024FFF060
:100F70009000C7E034FFF0D37896E2940018E29432
:100F800000400A08E224FFF218E234FFF29000C4A5
:100F9000E004F070069000C3E004F01213F71210A2
:100FA000D28F4280037542049000D8E0B40124E45B
:100FB000784FF6FF121C65E4F0F53EF53F00053F63
:100FC000E53F7002053EB42CF4E53EB401EF7F012D
:100FD000121C651206DE786CE264016003020F12D7
:100FE0007F01121AE0121B1CE4F54353B9FD43CCF8
:100FF0000212186053CCFD754203020F1222C0E0AA
:10100000C0F0C083C082C0D075D008C2CF30CD033D
:101010000210C730CB4720CC447844A6CEE6FFC3AD
:101020009480403075F003EFA424CFF582E5F034CE
:1010300014F583E493FB740193FA7402938B238A6F
:1010400024F5250525E5257002052414F912005E16
:10105000F5CE80097844E62522F8E6F5CE30CC2995
:101060007844E6C394804015AB230525E525AA24E2
:101070007002052414F912005EF5CE8056784406FD
:10108000E62522F8E6F5CE804A20CB47AFCE78445D
:10109000E6FE702EBF100553809F8037BF200543AA
:1010A0008060802FBF50087853E64401F68024BF4B
:1010B00060087853E654FEF680197845A60F1806A6
:1010C0008011EEC3940A50087844E62445F8A60F30
:1010D000784406784F7601D0D0D082D083D0F0D03B
:1010E000E032E4F5317532081212491218F6121284
:1010F000E1121A499000C0EFF012000EEF605F7F1E
:10110000011219E1AD07AC06D39000C8E09400903D
:1011100000C7E094004010ECC4F854F0C868FCED3F
:10112000C4540F48FD802E300811EDAE047803CE74
:10113000C313CE13D8F9FDAC06801AC37869E294C4
:101140002818E29400500EECC4F854F0C868FCED86
:10115000C4540F48FDAF05AE041202C18003AF3284
:10116000229000BFE0F531E5316034E49000CBF02F
:10117000A3F09000CAE004F070069000C9E004F00B
:101180007F051219E1D39000CAE09F9000C9E09E4C
:101190004014E4FF1216ACE49000C1F07F0322E497
:1011A0009000C9F0A3F09000C1E06531600BAF3151
:1011B0001216AC9000C1E531F0AF32227DFFE51888
:1011C00070030212437860E6FE08E6FFC37821E26E
:1011D0009F18E29E40107870E6FE08E6FF7825E250
:1011E0009F18E29E50707868E6FE08E6FFC37823F9
:1011F000E29F18E29E40107878E6FE08E6FF782726
:10120000E29F18E29E504F7814E2FE08E2FF781148
:10121000E22FF53518E23EF5347816E2FE08E2FFDB
:101220007813E22FFF18E23EAB07FAEB25E0FFEA66
:1012300033FEC3E5359FE5349E50035305FAE5358B
:1012400025E0FFE53433FEC3EB9FEA9E50085305CB
:10125000F580035305F08D1922E4F533E53325E0DD
:101260002410F8E2F53408E2F535AE34FFE4FCFD75
:101270007B64FAF9F81200DEC006C007E53325E00A
:101280002497F582E43400F583E0FEA3E0FFFBAA97
:1012900006E4F9F8D007D006120169E53325E02409
:1012A00020F8EEF208EFF2AE34AF35E4FCFD7B64DB
:1012B000FAF9F81200DEC006C007E53325E02497EE
:1012C000F582E43400F583E0FEA3E0FFFBAA06E428
:1012D000F9F8D007D006120169E53325E02418F8A3
:1012E000EEF208EFF20533E5336404600302124CBA
:1012F00022E4F533E53325E02408F8E2FE08E2FFB6
:10130000E53325E02400F8E2FC08E2FDC39FEC9EF3
:101310005048E53325E02409F8C3E29DF53518E28D
:101320009CF534FEAF35E4FCFD7B64FAF9F812005D
:10133000DEC006C007E53325E02497F582E43400DB
:10134000F583E0FEA3E0FFFBAA06E4F9F8D007D09E
:10135000061201698E368F378009E4F534F535F5CC
:1013600036F537D3E537940AE53694004002D208C3
:101370000533E533640460030212E422E4FFFEEE69
:1013800075F008A42461F8E624FBFD18E634FFFCA0
:10139000EE25E02421F9C3E39D19E39C401DEE25D1
:1013A000E02425F9C3E3940A19E39400400D740185
:1013B000A806088002C333D8FC4207EE75F008A4E3
:1013C0002471F8E624FBFD18E634FFFCEE25E0244A
:1013D00025F9C3E39D19E39C4021EE25E02421F982
:1013E000C3E3940A19E394004011EE2402FD740152
:1013F000A805088002C333D8FC42070EEE640260E1
:101400000302136F8F1B22E4F531E53175F008A458
:101410002462FFE53125E02418F8E2FC08E2FD1221
:101420001B98E53175F008A42464FFE53125E0241C
:1014300010F8E2FC08E2FD121B98E53175F008A4F3
:101440002466FBC003E53125E02400F8E2FE08E253
:10145000FFE4FCFDE53125E025E02480F812023EA2
:10146000EF2BFFEE3AFEED39FDEC38FC780412026A
:101470000CAD07AC06D007121B980531E531C394BB
:101480000440877853E6F52022E4FFFEEE75F0086D
:10149000A42460F8E6FC08E6FDEE25E02421F9C36B
:1014A000E39D19E39C401DEE25E02425F9C3E39458
:1014B0000A19E39400400D7401A806088002C333A2
:1014C000D8FC4207EE75F008A42470F8E6FC08E6A4
:1014D000FDEE25E02425F9C3E39D19E39C4021EEB0
:1014E00025E02421F9C3E3940A19E394004011EEA6
:1014F0002402FD7401A805088002C333D8FC42070A
:101500000EEE640270868F1822E4F531F532121B5C
:101510001CE49000BFF09000C1F0A3F09000C9F06F
:10152000A3F0A3F0A3F09000DBF0A3F07895F2080D
:10153000F2F521786CF2FFEF25E02497F582E43490
:1015400000F583E0FCA3E0FD9000D3E02DF09000D7
:10155000D2E03CF00FBF02DF9000D2E0FEA3E0FF3C
:101560007C007D0A1200899000D2EEF0A3EFF01209
:101570000DCC120B5A1208757F0A1219E19000C7A0
:10158000EEF0A3EFF0121B8322E4F5317850F6FF62
:10159000121BAC8F31E531BFFF0678517604800411
:1015A000785176FF78527601E408F6785576FF7820
:1015B00060F60876327868F60876327870F6087643
:1015C000967878F6087696FFEF75F008A42462F80E
:1015D000E4F608F6EF75F008A42464F8E4F608F6DB
:1015E000EF75F008A42466F8E4F608F60FBF04D8F7
:1015F00075225022C0E0C0F0C083C082C0D075D038
:1016000000C000C004C005C006C007C28D758CD8DC
:10161000758AF00541E54170020540AE40FF7C004F
:101620007D64120089ED4C70219000C3E0FEA3E0C0
:10163000FFD3940AEE94004006A3EEF0A3EFF090DF
:1016400000C3E4F0A3F0F540F541D007D006D00583
:10165000D004D000D0D0D082D083D0F0D0E032FE01
:101660000000FE0008FE0008FE0010FE0010FE0054
:1016700018FE0018FE0020FE0020FE00280000904A
:101680000000980000A00000A8FE0000FE0008FE78
:101690000050FE00400100C30000180100BF01001F
:1016A000D60100BF0100D8FE00950100AF0100B7D0
:1016B0000100C0FE0058FE0060FE00859000D8E0EA
:1016C000705504F0E4FEFDFC7401A804088002C318
:1016D00033D8FCF9FB9000C1E05BB50313EC2404A4
:1016E000FA7401A802088002C333D8FC42068003C2
:1016F000E94206EF5BB50305E942058011EC2404DD
:10170000FB7401A803088002C333D8FC42050CBC5B
:1017100002B6EE5D7850F62208B002040103050619
:10172000FFFF04B800000000604600970122014A54
:10173000003C005A004600460046004601020408EC
:10174000050607080000000000000000000000007F
:101750000000000000000000000000000000000089
:101760000000000000000000000000000000000079
:10177000000000E4FBEB25E025E024A0F812023293
:10178000EF2418FFEE34FCFEED34FFFDEC34FFFCDB
:10179000EB25E025E02480F812024BEB25E0240045
:1017A000F87403F20874E8F2EBC394045017EB25C5
:1017B000E02410F8E4F208F2EB25E02408F87403C2
:1017C000F20874E8F20BBB04AC22C0E0C0F0C083A6
:1017D000C082C0D075D01053B9FD753D0074B025DE
:1017E0003DF8E675F003A4246BF582E4341BF58321
:1017F000E493740193FA740293F91202BBE53D2558
:10180000E025E02490F812024B053DE53DC3940429
:1018100040CB754300D0D0D082D083D0F0D0E0321E
:10182000A907E4FDFC74017E00A804088005C33309
:10183000CE33CED8F9FFE9FB7A00EAEF5B701DECFE
:101840002402FF74017E00A807088005C333CE334D
:10185000CED8F9FFEE5AFEEF5B4E600D7401A8047E
:10186000088002C333D8FC42050CBC02B8AF052285
:1018700053E3FDC2D9439F10E4FF0FBFFFFC539F0A
:10188000FD75BE0C438760759242C28D438703008D
:1018900000000075BE0EC28D439F10E4FF0FBFFF16
:1018A000FC439F02E4FF0FBFFFFC539FEF7592764E
:1018B00043E302E4F5BFF5B9D2D922E4FFFE74B0E8
:1018C0002EF8E6901C6E9342070EBE04F1EF42D450
:1018D000EF42F4EF42E4EFF452DC75AA3B75BA0C28
:1018E00043BA4043B92053B9BF8FB4E4F5B375B2DE
:1018F0004E75B12075BBFF75A950F5AB75AC03757E
:10190000ADC075AEC0227820E2FE08E2FF8E33F54E
:10191000347D01ED25E02420F8E2FA08E2FBC395CE
:1019200034EA953350048A338B34D3EB9FEA9E40DC
:1019300004AE02AF030DBD02DA786AE533F208E5C2
:1019400034F27868EEF208EFF222121A74E4F539F4
:1019500074B02539F8E675F003A4246BF582E434FD
:101960001BF583E493740193FA740293F91202BB9A
:10197000E53925E025E02490F812024B0539E539D8
:10198000C3940440CB22E4FE7C0474B02CF8E690AF
:101990001C6E9342060CBC06F1EF6005EE42D4804B
:1019A00004EEF452D4EEF4FF52F4EE42E4ED60059E
:1019B000EE42EC8003EF52ECEF52DC227E007FAF70
:1019C000E4FDED25E024C0F582E4341AF583E493C8
:1019D000F4601DED25E024C1F582E4341AF583E4BA
:1019E00093FCEF2DF582E43EF583ECF00DBD10D2B3
:1019F000227533007534AF7B017A00BFFF057F018C
:101A00007E0022E5342FF582E43533F583E07A0059
:101A1000FB9000C5E0FCA3E0FDAF037E0012007761
:101A2000AA06AB072243F80875CD4053CC7F43CCC0
:101A30004043CC2043CC1043CC0453CCFD43CB02D9
:101A400043CB0153CBBF43E80853E5FC43E30243D8
:101A5000F50343900343ED03221209FF1214791298
:101A600011AC121C7712136C9000BFE0700D85183A
:101A700033E5195233E51A52338003851B33AF33F4
:101A80001218102275BF0F000000000000000000B7
:101A9000000000000000000000D2D853B9FD43B997
:101AA00001E5B930E1FBE4F5BF22438901C28DD2E3
:101AB000A953B8FDE4F540F5419000C3F0A3F0A3AD
:101AC000F0A37464F0758CD8758AF0D28CD2AF22F2
:101AD00000020101020103010405050606060702D2
:101AE000080A09020A020B280C010D030E01FF016E
:101AF000E4FE7D0474B02DF8E6901C6E9342060D52
:101B0000BD06F1EF6004EE428022EEF4528022E442
:101B1000F5E3439F10439F02FF0FBFFFFC539FEF6E
:101B200075BE0EE4F5BFF5B97592762253BAFEE59F
:101B3000B920E004E5436005E5B930E1FBE4F5BF19
:101B400053B9FE53B9FD22AB07AA06D3EB9DEA9C1D
:101B50004007EB9DFFEA9CFE22C3ED9BFFEC9AFE43
:101B600022EF600543D504800353D5FB53F5FB53A7
:101B7000E5FB43E304E49000D8F022FF1BC0FF1B09
:101B8000D3FF1BE6FF1BF9FF1C0CFF1C1FFF1C32C1
:101B9000FF1C4575BF0F43B92053B9FD43BA01750A
:101BA000430143B901D2D822AB07AF04AE05C2AF9F
:101BB000A803A607E804F8A606D2AF22E4FFF58240
:101BC000F5837420FEE493F42FFFA3EEB583F62291
:101BD00053B9EF78B9A6B708A6B608A6B578B81273
:101BE00002322253B9EF78B9A6EB08A6EA08A6E9B3
:101BF00078B81202322253B9EF78B9A6F308A6F2E8
:101C000008A6F178B81202322253B9EF78B9A6FBD0
:101C100008A6FA08A6F978B81202322243B9107859
:101C2000B9A6B708A6B608A6B578B81202322243FC
:101C3000B91078B9A6EB08A6EA08A6E978B81202A6
:101C4000322243B91078B9A6F308A6F208A6F178B3
:101C5000B81202322243B91078B9A6FB08A6FA08D6
:101C6000A6F978B812023222C2DA53D80F43D8D07C
:101C7000D2D8D2D922EF6003D29222C2922201029C
:101C800004081020408090751AFF22FFFFFFFFFF1D
:00000001FF
